S01D000053696D706C652D5461736B2D5363686564756C65722E7372656311
S11300000C9470000C948D000C948D000C948D0055
S11300100C948D000C948D000C948D000C948D0028
S11300200C948D000C948D000C948D000C948D0018
S11300300C948D000C94C7010C948D000C948D00CD
S11300400C948D000C948D000C948D000C948D00F8
S11300500C948D000C948D000C948D000C948D00E8
S11300600C948D000C948D000C948D000C948D00D8
S11300700C948D000C948D000C948D000C948D00C8
S11300800C948D000C948D000C948D000C948D00B8
S11300900C948D000C948D000C948D000C948D00A8
S11300A00C948D000C948D000C948D000C948D0098
S11300B00C948D000C948D000C948D000C948D0088
S11300C00C948D000C948D000C948D006D017401C2
S11300D07B0182018901900197019E01A501AC0178
S11300E011241FBECFEFD8E0DEBFCDBF21E0A6E0D4
S11300F0B1E001C01D92A031B207E1F711E0A0E028
S1130100B1E0EEE2F6E002C005900D92A630B10730
S1130110D9F70E9499000C9415030C9400009EB129
S113012080E189278EB9089595B180E2892785B940
S1130130089581E00E94D5002FE830E040E050E0CF
S113014064E681E090E00E94080124E930E040E0A8
S113015050E068EC82E090E00E9408010E94DE001A
S11301600E942D01FDCF909106019F5F909306019F
S1130170E0910801F09109013097B1F0838198135F
S11301800EC08185823038F4258136812F5F3F4F40
S11301903683258304C08281890F83831186028478
S11301A0F385E02D309751F7089523EB30E0309339
S11301B00B0120930A010E944B0108950E94C10182
S11301C00895CF93DF93EC01409108015091090108
S11301D02C81FA01A0E0B0E004C0DF010284F385C1
S11301E0E02D94819217C8F33097B9F7452B39F471
S11301F01B861A86D0930901C093080106C01B967A
S1130200DC93CE931A971B861A86DF91CF910895BB
S1130210EF92FF920F931F93CF93DF937C01C62F2E
S1130220D42F89018CE090E00E94F401FC01F08657
S1130230E782C283C383D4831186118300830E941F
S1130240E100809107018F5F80930701DF91CF91D7
S11302501F910F91FF90EF9008950F931F93CF93E9
S1130260DF93C0910801D0910901209779F001E052
S113027012E08985811105C00987E881F981099512
S113028019870A84DB85C02D209799F7DF91CF91D8
S11302901F910F910895E82FA0E8B0E08C91806C35
S11302A08C93A1E8B0E08C9188608C93E53020F4C5
S11302B08C9181608C9305C0A1E8B0E08C91826040
S11302C08C938E2F90E0FC013197EA30F10508F011
S11302D04AC0EA59FF4F0C94EE018FE79EE39093D6
S11302E089008093880008958FEF9CE7909389009C
S11302F08093880008958FE79BEB90938900809307
S1130300880008958FEF99EF909389008093880077
S113031008958FE097E29093890080938800089570
S11303208FED9EE2909389008093880008958FEA70
S113033096E3909389008093880008958FE79EE365
S1130340909389008093880008958FE496E49093B5
S113035089008093880008958FE19EE4909389003A
S1130360809388000895E1E8F0E0808181608083D3
S1130370E8E8F0E08FE79EE39183808391838083B4
S11303800895EFE6F0E080818260808308951F92F3
S11303900F920FB60F9211242F933F934F935F93B5
S11303A06F937F938F939F93AF93BF93EF93FF9339
S11303B0E0910A01F0910B010995FF91EF91BF9132
S11303C0AF919F918F917F916F915F914F913F91E9
S11303D02F910F900FBE0F901F901895EE0FFF1FD7
S11303E00590F491E02D09940F931F93CF93DF931D
S11303F08230910510F482E090E0E0910E01F091DA
S11304000F0120E030E0A0E0B0E0309719F1408126
S113041051810281138148175907C8F08417950741
S113042069F4109731F012960C93129713961C935B
S113043027C000930E0110930F0122C0211531052E
S113044019F04217530718F49A01BD01EF01DF01B7
S1130450F801DBCF21153105F9F0281B390B2430C5
S1130460310580F48A819B816115710521F0FB01BE
S11304709383828304C090930F0180930E01FE0145
S1130480329644C0FE01E20FF31F819391932250F0
S11304903109398328833AC020910C0130910D0130
S11304A0232B41F4209102013091030130930D017B
S11304B020930C0120910001309101012115310597
S11304C041F42DB73EB74091040150910501241B1E
S11304D0350BE0910C01F0910D01E217F307A0F444
S11304E02E1B3F0B2817390778F0AC014E5F5F4F86
S11304F02417350748F04E0F5F1F50930D014093AA
S11305000C018193919302C0E0E0F0E0CF01DF9110
S1130510CF911F910F910895CF93DF93009709F422
S113052081C0FC01329713821282A0910E01B09116
S11305300F01109781F420813181820F931F209144
S11305400C0130910D012817390751F5F0930D0175
S1130550E0930C0167C0ED0120E030E0CE17DF0727
S113056040F44A815B819E0141155105F1F0EA0195
S1130570F5CFD383C28340815181840F951FC8175F
S1130580D90759F488819981840F951F0296918324
S113059080838A819B81938382832115310529F489
S11305A0F0930F01E0930E013DC0E901FB83EA8360
S11305B049915991C40FD51FEC17FD0761F480814F
S11305C09181840F951F0296E90199838883828122
S11305D093819B838A83E0E0F0E012968D919C9155
S11305E01397009719F0FD01DC01F7CF8D919C91D1
S11305F011979D012E5F3F4F820F931F20910C0195
S113060030910D012817390769F4309729F41092B5
S11306100F0110920E0102C013821282B0930D01D9
S1110620A0930C01DF91CF910895F894FFCFC1
S109062E00001001200091
S9030000FC
